:100000000C9463000C948B000C948B000C948B006C
:100010000C948B000C948B000C948B000C948B0034
:100020000C948B000C948B000C9461060C940B07C1
:100030000C941A060C948B000C948B000C948B007F
:100040000C9489040C948B000C94E1020C94BB0278
:100050000C948B000C948B000C948B000C948B00F4
:100060000C94D3040C948B000000000024002700A3
:100070002A0000000000250028002B0000000000DE
:1000800023002600290004040404040404040202DA
:100090000202020203030303030301020408102007
:1000A0004080010204081020010204081020000012
:1000B0000008000201000003040700000000000027
:1000C00000000511E71011241FBECFEFD8E0DEBFFE
:1000D000CDBF12E0A0E0B1E0EEE9FAE202C0059087
:1000E0000D92A430B107D9F724E0A4E0B2E001C03A
:1000F0001D92AD37B207E1F710E0C2E6D0E004C0D0
:100100002197FE010E94CF11C136D107C9F70E9485
:10011000090A0C9442150C940000CF92DF92EF92E2
:10012000FF920F931F93CF93DF936C017A018B01A2
:10013000C0E0D0E0CE15DF0589F0D8016D918D01CA
:10014000D601ED91FC910190F081E02DC601099559
:10015000892B11F47E0102C02196ECCFC701DF91FB
:10016000CF911F910F91FF90EF90DF90CF90089566
:10017000FC01918D828D981761F0828DDF01A80FAF
:10018000B11D5D968C91928D9F5F9F73928F90E0D1
:1001900008958FEF9FEF0895FC01918D828D981740
:1001A00031F0828DE80FF11D858D90E008958FEF7D
:1001B0009FEF0895FC01918D228D892F90E0805C46
:1001C0009F4F821B91098F739927089582EB93E0CB
:1001D0000E94DA0021E0892B09F420E0822F0895A3
:1001E000FC01848DDF01A80FB11DA35ABF4F2C91D4
:1001F000848D90E001968F739927848FA689B789A3
:100200002C93A089B1898C9180648C93938D848D7B
:10021000981306C00288F389E02D80818F7D80834A
:100220000895EF92FF920F931F93CF93DF93EC010A
:1002300081E0888F9B8D8C8D981305C0E889F989A2
:10024000808185FD24C0F62E0B8D10E00F5F1F4FBF
:100250000F731127E02E8C8DE8120CC00FB607FC2F
:10026000FACFE889F989808185FFF5CFCE010E9418
:10027000F000F1CF8B8DFE01E80FF11DE35AFF4F27
:10028000F0820B8FEA89FB898081806207C0EE894A
:10029000FF896083E889F98980818064808381E0B7
:1002A00090E0DF91CF911F910F91FF90EF90089513
:1002B000CF93DF93EC01888D8823C9F0EA89FB890D
:1002C000808185FD05C0A889B9898C9186FD0FC004
:1002D0000FB607FCF5CF808185FFF2CFA889B989D9
:1002E0008C9185FFEDCFCE010E94F000E7CFDF912A
:1002F000CF91089580E090E0892B29F00E94E600DC
:1003000081110C9400000895833081F028F481302D
:1003100099F08230A1F008958730A9F08830B9F0C3
:100320008430D1F4809180008F7D03C08091800063
:100330008F7780938000089584B58F7702C084B54D
:100340008F7D84BD08958091B0008F7703C0809128
:10035000B0008F7D8093B000089585ED8093BC0040
:100360008091BC0084FDFCCF10928D030895089508
:1003700081E090E030910F0220910E02321710F4CC
:1003800080E090E0919581959109089580910F0208
:1003900090910E02891730F48F5F80930F0280E0F6
:1003A00090E008958FEF9FEF089580910E0290E006
:1003B00020910F02821B91090895CF92DF92EF9254
:1003C000FF920F931F93CF93DF937C018A0180915B
:1003D0008E03882389F0EB016B01C40ED51ECC156A
:1003E000DD05F1F06991D701ED91FC910190F0816B
:1003F000E02DC7010995F3CF842F413288F4909105
:100400008D03943069F440932F03FB012DE033E01A
:10041000D9019A2F921B981718F491919D93F9CFB7
:10042000C801DF91CF911F910F91FF90EF90DF9066
:10043000CF90089520918E032223C9F02091B1031B
:10044000203240F021E030E0FC013383228380E061
:1004500090E0089580918F03E82FF0E0E057FC4F83
:1004600060838F5F80938F038093B10309C0809175
:100470008D03843029F481E080932F0360930D0372
:1004800081E090E008955091080240910702852F85
:1004900090E0242F30E0541710F4805B9F4F821BB4
:1004A000930B089580910802E09107028E1751F096
:1004B000EF5FE03508F0E0E0F0E0E354FD4F8081CD
:1004C00090E008958FEF9FEF08958091080290913A
:1004D0000702891769F09F5F903508F090E0E92FD7
:1004E000F0E0E354FD4F80819093070290E008957F
:1004F0008FEF9FEF0895809106028111FCCF089540
:10050000809105028F5F843408F080E090910402AE
:100510009817E1F32FB7F89490910602992341F0D0
:10052000E82FF0E0ED58FD4F6083809305021DC079
:1005300081E0809306026093B8021092B70282E0D5
:1005400086BB80916F00826080936F0080918000F5
:100550008F738068809380008091840090918500E3
:10056000409690938900809388002FBF81E090E0AF
:1005700008950E9434151F920F920FB60F92112406
:100580002F933F934F935F936F937F938F939F939B
:10059000AF93BF93EF93FF9382EB93E00E94F00041
:1005A000FF91EF91BF91AF919F918F917F916F914B
:1005B0005F914F913F912F910F900FBE0F901F9021
:1005C00018951F920F920FB60F9211242F938F93AD
:1005D0009F93EF93FF93E091C203F091C303808157
:1005E000E091C803F091C90382FD12C0908180910F
:1005F000CB038F5F8F732091CC03821751F0E09172
:10060000CB03F0E0EE54FC4F958F8093CB0301C0F9
:100610008081FF91EF919F918F912F910F900FBE4D
:100620000F901F901895CF93DF93282F30E0F9019A
:10063000E255FF4F8491F901E656FF4FD491F9013D
:10064000EA57FF4FC491CC2391F081110E9484019D
:10065000EC2FF0E0EE0FFF1FE458FF4FA591B4918F
:10066000EC91ED2381E090E021F480E002C080E095
:1006700090E0DF91CF9108951F93CF93DF93282FC0
:1006800030E0F901E255FF4F8491F901E656FF4F42
:10069000D491F901EA57FF4FC491CC23C9F0162F2A
:1006A00081110E948401EC2FF0E0EE0FFF1FEE5845
:1006B000FF4FA591B4918FB7F894111105C09C918B
:1006C000ED2FE095E92302C0EC91ED2BEC938FBF69
:1006D000DF91CF911F910895CF93DF9390E0FC01BC
:1006E000E656FF4F2491FC01EA57FF4F849188237F
:1006F00061F190E0880F991FFC01E859FF4FC59107
:10070000D491FC01EE58FF4FA591B491611109C03D
:100710009FB7F8948881209582238883EC912E23BB
:100720000BC0623061F49FB7F8943881822F8095B6
:1007300083238883EC912E2B2C939FBF06C08FB709
:10074000F894E8812E2B28838FBFDF91CF910895F5
:100750001F93CF93DF93182FEB0161E00E946C038E
:10076000209711F460E004C0CF3FD10539F461E077
:10077000812FDF91CF911F910C943C03E12FF0E08A
:10078000E255FF4FE491E330F9F048F4E130B9F07D
:10079000E230A1F584B5806284BDC8BD34C0E730C5
:1007A000E9F0E83019F1E43049F580918000806289
:1007B00080938000D0938B00C0938A0024C084B5BE
:1007C000806884BDC7BD1FC0809180008068809311
:1007D0008000D0938900C093880015C08091B0003C
:1007E00080688093B000C093B3000DC08091B000CA
:1007F00080628093B000C093B40005C0C038D105BA
:100800000CF0B5CFAFCFDF91CF911F9108958E300F
:1008100008F08E508770806480937C0080917A000D
:10082000806480937A0080917A0086FDFCCF80916D
:1008300078002091790090E0922B08953FB7F894CA
:100840008091590390915A03A0915B03B0915C038E
:1008500026B5A89B05C02F3F19F00196A11DB11D1B
:100860003FBFBA2FA92F982F8827820F911DA11D56
:10087000B11DBC01CD0142E0660F771F881F991F93
:100880004A95D1F708958F929F92AF92BF92CF92DF
:10089000DF92EF92FF926B017C010E941E044B01DC
:1008A0005C01C114D104E104F104F1F00E941E04C2
:1008B000DC01CB0188199909AA09BB09883E93403C
:1008C000A105B10570F321E0C21AD108E108F108D1
:1008D00088EE880E83E0981EA11CB11CC114D104BF
:1008E000E104F10419F7DDCFFF90EF90DF90CF9096
:1008F000BF90AF909F908F9008952FB7F89460911C
:1009000055037091560380915703909158032FBF60
:1009100008951F920F920FB60F9211242F933F93B9
:100920008F939F93AF93BF938091550390915603FC
:10093000A0915703B09158033091540323E0230F43
:100940002D3720F40196A11DB11D05C026E8230F07
:100950000296A11DB11D20935403809355039093DB
:100960005603A0935703B093580380915903909175
:100970005A03A0915B03B0915C030196A11DB11DC8
:100980008093590390935A03A0935B03B0935C0345
:10099000BF91AF919F918F913F912F910F900FBE7B
:1009A0000F901F9018951F920F920FB60F9211245F
:1009B0002F933F934F935F936F937F938F939F9367
:1009C000AF93BF93EF93FF938091B900887F8036F8
:1009D00009F49CC068F5883209F45BC090F480315A
:1009E00009F454C038F4882309F4F1C0883009F4BC
:1009F0004DC0F1C0883109F44CC0803209F45DC0AB
:100A0000EAC0803409F468C048F4803309F455C062
:100A1000883309F0E0C080938B03D3C0803509F49C
:100A20004FC0883509F45DC0883409F0D4C0D1C006
:100A3000883909F4C2C0A8F4883709F467C038F4CB
:100A4000883609F463C0803709F460C0C4C08838B0
:100A500009F4B3C0803909F45FC0803809F0BBC025
:100A60005BC0803B09F481C038F4803A09F466C069
:100A7000883A09F47AC0AFC0803C09F4A2C0883C2F
:100A800009F49FC0883B09F485C0A5C08091680324
:100A900010C090918A0380918903981770F5E091B6
:100AA0008A0381E08E0F80938A03F0E0E759FC4FC0
:100AB00080818093BB0085EC81C080938B0389C0CB
:100AC000E0918A0381E08E0F80938A038091BB00BE
:100AD000F0E0E759FC4F808390918A03809189036D
:100AE00069C0E0918A0381E08E0F80938A03809130
:100AF000BB00F0E0E759FC4F808380918C038111AB
:100B000068C081E08093670384EA5CC083E08093DF
:100B10008D0310925303CFCF80915303803208F09E
:100B20004CC0E091530381E08E0F8093530380917A
:100B3000BB00F0E0ED5CFC4F8083BDCF80915303A0
:100B4000803230F4E0915303F0E0ED5CFC4F108212
:100B50006091530370E0E0913103F091320383E33D
:100B600093E00995109253032CC084E080938D0389
:100B70001092300310922F03E0912D03F0912E0379
:100B8000099580912F03811105C081E080932F0387
:100B900010920D03E091300381E08E0F80933003BB
:100BA000F0E0E35FFC4F80818093BB0090913003C5
:100BB00080912F03981708F47ECF85E88093BC00BE
:100BC0000AC085EC8093BC0010928D0304C0109283
:100BD0008B030E94AD01FF91EF91BF91AF919F9167
:100BE0008F917F916F915F914F913F912F910F90D6
:100BF0000FBE0F901F90189510928D0381E0809387
:100C00008C031092670361E082E10E943C0361E083
:100C100083E10E943C03E9EBF0E080818E7F8083DA
:100C200080818D7F808388E48093B80085E4809301
:100C3000BC0008951F920F920FB60F9211242F93AC
:100C40008F939F93EF93FF9380916F008B7F80939F
:100C50006F00809181008F7B8093810080910902D9
:100C60002091BC0220589091BB02893020F49695C7
:100C7000922B8F5FFACF9093BB02809108028F5F17
:100C8000803508F080E020910702821739F0E82FC4
:100C9000F0E0E354FD4F9083809308021092090224
:100CA000809181008F7B809381001092BC02FF9124
:100CB000EF919F918F912F910F900FBE0F901F90EA
:100CC00018951F920F920FB60F9211242F933F93F6
:100CD0004F935F936F937F938F939F93AF93BF9344
:100CE000EF93FF9380918600909187004091BC0222
:100CF00020918100442331F02F7B209381001092BA
:100D0000BC0206C020642093810020E82093BC022E
:100D100030910902311125C041116CC020910A02A5
:100D200030910B02280F391F30938B0020938A00DB
:100D300024E026BB20916F00246020936F00209157
:100D40000C0230910D02820F931F36952795820F6A
:100D5000931F9093BA028093B90281E080930902B5
:100D600049C04091B9025091BA0260910C02709151
:100D70000D02DB01A095B095E091BC022091BB0271
:100D8000841B950BA817B90768F126952E2B460FE3
:100D9000571F3F5F861B970B3930A0F32093BB0290
:100DA00080916F008B7F80936F00809108028F5F2E
:100DB000803508F080E090910702891749F0E82F0C
:100DC000F0E09091BB02E354FD4F908380930802C2
:100DD000809181008F7B809381001092BC021092E1
:100DE000090208C02093BB025093BA024093B90293
:100DF00030930902FF91EF91BF91AF919F918F9135
:100E00007F916F915F914F913F912F910F900FBE06
:100E10000F901F9018951F920F920FB60F921124EA
:100E20002F933F934F935F936F937F938F939F93F2
:100E3000EF93FF93809106026091B80220918800A1
:100E40003091890040910C0250910D029091B702AF
:100E50008A30F8F4240F351F893019F0762F71701D
:100E600001C071E066958F5F791791F390918000D2
:100E7000772311F0906C02C09F739068909380006C
:100E800030938900209388007093B7026093B80272
:100E90004AC090910502E09104029E1319C08A3065
:100EA00051F48BE080930602240F351F30938900A4
:100EB000209388003AC010920602809180008F73C0
:100EC0008093800080916F008D7F80936F002DC094
:100ED000EF5FE43408F0E0E0E0930402F0E0ED5866
:100EE000FD4F90819093B8021092B70290918000CC
:100EF0009F739068909380008A3059F480910C021F
:100F000090910D02280F391F30938900209388009B
:100F100009C080918400909185004096909389004B
:100F20008093880081E080930602FF91EF919F916A
:100F30008F917F916F915F914F913F912F910F9082
:100F40000FBE0F901F9018958F929F92AF92BF92F5
:100F5000CF92DF92EF92FF92CF93DF93EC01AB0140
:100F60006F3F710519F010F04FEF50E06A01E12C6E
:100F7000F12CC230D10558F527E0C20ED11CE11C7E
:100F8000F11C33E0F594E794D794C7943A95D1F7E0
:100F90009A01A3E0B0E00E94A111DC01CB018D5FBA
:100FA0009140A109B109C816D906EA06FB0614F05A
:100FB000B60108C06A01CC0CDD1CC40ED51EB601FA
:100FC0006E5F7140CC0FDD1FCA5FDE4F3BC0C53086
:100FD000D1050CF044C0C701B601695F7F4F8F4F48
:100FE0009F4F28E030E040E050E00E94821149012C
:100FF0005A01B094A09490948094811C911CA11CDF
:10100000B11C8FEF90E0A0E0B0E09C01AD012C1985
:101010003D094E095F09A3E0B0E00E94B0117501DF
:1010200064012FEFC20ED11CE11CF11C6C157D0573
:101030008E059F0514F46B017C01CC0FDD1FCA5F88
:10104000DE4FB6018881DF91CF91FF90EF90DF9066
:10105000CF90BF90AF909F908F900C94A803DF919A
:10106000CF91FF90EF90DF90CF90BF90AF909F9087
:101070008F900895009769F0FC0101900020E9F736
:101080003197AF01481B590BBC018DE694E00C94DD
:101090008D0080E090E00895CF93DF930E943A089E
:1010A000EC0180E591E00E943A088C0F9D1FDF91D2
:1010B000CF9108950C943A082091B1039091B00318
:1010C000213208F046C080918D038111FCCF32E0BF
:1010D00030938D0331E030938C033FEF30938B03DB
:1010E00010928A0320938903A0E9B3E049E653E014
:1010F000FA013E2F341B321718F43D913193F9CF8A
:101100001092680320916803990F922B90936803C3
:1011100090916703913041F41092670390916803B6
:101120009093BB0095EC01C095EE9093BC0090911C
:101130008D039230E1F390918B039F3F79F0809182
:101140008B03803241F080918B03803331F084E057
:1011500005C081E003C082E001C083E010928F03EC
:101160001092B10310928E0308950F931F93CF93A3
:10117000DF9380916B0491E090938E038093B00392
:1011800010928F031092B10360E08FE494E00E940C
:101190001A02CBE5D4E08E0168818FE494E00E94CE
:1011A0001A022296F80161818FE494E00E941A02EB
:1011B000F4E0CB36DF0779F7DF91CF911F910F91E4
:1011C0000C945C08CF93DF9380916503811145C037
:1011D00080915D0390915E03DC01ED91FC910480B0
:1011E000F581E02D09950397C4F180915D039091FD
:1011F0005E03DC01ED91FC910680F781E02D0995FD
:10120000A0915D03B0915E03ED91FC91119706975B
:1012100041F00480F581E02DCD01099503972CF76D
:101220004EC00680F781E02DCD01099585389105E6
:10123000A1F480915D0390915E03DC01ED91FC913E
:101240000680F781E02D09958093650390916103F5
:10125000891719F01092650332C0809165038823C5
:1012600071F180915D0390915E03DC01ED91FC9141
:101270000480F581E02D0995309165032091640388
:10128000892BF9F03217E8F0C0916203D091630323
:1012900081E0820F80936403C20FD11D80915D03B2
:1012A00090915E03DC01ED91FC910680F781E02DC9
:1012B00009958883D6CF109265031092640380E06D
:1012C00033C0A32FB0E0822F90E0AC014150510910
:1012D000A417B507A1F7309366036091620370917C
:1012E0006303FB0120916603AF01461B570B4A17AE
:1012F0005B072CF43191232720936603F3CF860FED
:10130000971FFC01319780812813D5CF409161034D
:1013100050E080915F03909160030E943915109214
:1013200065031092640381E0DF91CF9108958F925D
:101330009F92AF92BF920F931F93CF93DF93CDB73E
:10134000DEB7A1970FB6F894DEBF0FBECDBF19A2CE
:10135000423008F44AE08E010F5D1F4F842E912C1D
:10136000A12CB12CA50194010E946011E62FB901B6
:10137000CA0101501109EA3014F4E05D01C0E95CD2
:10138000D801EC93232B242B252B61F7C8010E9455
:101390003A08A1960FB6F894DEBF0FBECDBFDF911D
:1013A000CF911F910F91BF90AF909F908F90089514
:1013B000CF92DF92EF92FF92CF93DF936B017C018C
:1013C000E0916D04F0916E040190F081E02D6DE2EA
:1013D0008DE694E00995EC0166277727CB016C191F
:1013E0007D098E099F094AE00E9497098C0F9D1F75
:1013F000DF91CF91FF90EF90DF90CF900895BC01E7
:10140000990F880B990B97FD0C94D8094AE00C941E
:101410009709CF93DF9300D000D0CDB7DEB7789493
:1014200084B5826084BD84B5816084BD85B58260E9
:1014300085BD85B5816085BD80916E00816080939A
:101440006E00109281008091810082608093810003
:101450008091810081608093810080918000816013
:10146000809380008091B10084608093B10080916E
:10147000B00081608093B00080917A008460809396
:101480007A0080917A00826080937A0080917A005D
:10149000816080937A0080917A00806880937A00DE
:1014A0001092C10061E082E00E943C0361E082E0B2
:1014B0000E946C0302EB13E0E091C203F091C303BE
:1014C00082E08083E091BE03F091BF031082E0913F
:1014D000C003F091C1038FEC80831092CA03E091A6
:1014E000C603F091C70386E08083E091C403F091C6
:1014F000C503808180618083E091C403F091C503BE
:10150000808188608083E091C403F091C50380816D
:1015100080688083E091C403F091C50380818F7D52
:10152000808387E292E09093600380935F0384E17D
:101530008093610310935E0300935D0385E190E067
:101540000E940714909363038093620383E592E003
:1015500090934702809346028CE180934802109357
:101560004502009344028DE190E00E94071490939D
:101570004A028093490210926F001092800082E824
:101580008093810085E09DE090930D0280930C0292
:101590008EE698E790930B0280930A0262E088E05F
:1015A0000E946C0361E089E00E943C0361E089E0F5
:1015B0000E946C0310920902109208021092070216
:1015C00010920602109205021092040280E286BB7D
:1015D00080936F0010920F0210920E0210928F03F0
:1015E0001092B1030E94FC0580E780936B04109277
:1015F0008F031092B1030E94FC0580916B0411E0EF
:1016000010938E038093B00310928F031092B10356
:1016100061E28FE494E00E941A020E945C088091CB
:101620006B0410938E038093B00310928F0310927B
:10163000B10361E88FE494E00E941A020E945C0802
:1016400080916B0410938E038093B00310928F03EC
:101650001092B1036FEE8FE494E00E941A020E9490
:101660005C088FEF90E090935C0480935B04909310
:101670005E0480935D0422E030E0309360042093A8
:101680005F04909362048093610490936404809358
:1016900063040E94B50860E082E00E943C0306E01B
:1016A00011E0E12CF12CD8018C910E5F1F4F61E00D
:1016B0000E946C036FEF70E0C7010E94A407BFEFA8
:1016C000EB1AFB0AE5E0EE16F10469F764EF71E04E
:1016D00080E090E00E94430400E010E060E070E0F1
:1016E000C8010E94A4070F5F1F4F05301105B1F715
:1016F00010925C0410925B0410925E0410925D04E0
:101700001092600410925F041092620410926104BF
:1017100010926404109263040E94B50862E08DE0A8
:101720000E946C0362E08CE00E946C0362E088E03F
:101730000E946C0362E087E00E946C0362E084E038
:101740000E946C0362E083E00E946C030E947D04AF
:101750008B019C0108511C4F2F4F3F4F00936F028C
:10176000109370022093710230937202DC01CB015E
:101770008854944FAF4FBF4F80933F0290934002E5
:10178000A0934102B093420280E591E00E943A08A2
:1017900083E591E00E945A088CE791E00E945A0884
:1017A00080EC91E00E945A0888E891E00E944C0881
:1017B00084E00E941303019731F41092430281E9FF
:1017C00091E00E944C0810925202109216022224BC
:1017D0002394312C0E947D046B017C0180916F0267
:1017E00090917002A0917102B09172028C159D05CA
:1017F000AE05BF0508F0F5C0D701C601CC96A11D06
:10180000B11D80936F0290937002A0937102B09308
:1018100072020E94E208811115C06AE070E080E067
:1018200090E00E9443040E94E208F0E5CF0ED11C34
:10183000E11CF11CC0926F02D0927002E092710222
:10184000F09272020E94E20880E00E940704925027
:101850009C01220F331F820F931F67E070E00E94EC
:101860004C117E5F709354026093530282E00E9499
:1018700007042FEF31E0281B390BC901220F331F5A
:10188000820F931F67E070E00E944C117E5F70939F
:101890005A026093590270935C0260935B028091DC
:1018A00053029091540290935602809355021092E5
:1018B00058021092570210925E0210925D0230920E
:1018C0006602209265028091520290E09093680235
:1018D0008093670283E00E940704909360028093E4
:1018E0005F0287E00E941303892B29F43092620281
:1018F0002092610204C0109262021092610288E09C
:101900000E941303892B29F430926402209263020F
:1019100004C0109264021092630280914E02909172
:101920004F02A0915002B09151020196A11DB11D2C
:1019300080934E0290934F02A0935002B0935102B5
:1019400090936A0280936902F09048028091440269
:1019500090914502DC01ED91FC910190F081E02D28
:1019600066E009958091440290914502DC01ED9179
:10197000FC910190F081E02D65E809958091440289
:1019800090914502DC01ED91FC910190F081E02DF8
:1019900060914802099500E010E02091480230E093
:1019A00080914402909145020217130794F4E0914C
:1019B0004602F0914702E00FF11F6081F626DC013C
:1019C000ED91FC910190F081E02D09950F5F1F4F83
:1019D000E4CFDC01ED91FC910190F081E02D6F2DC1
:1019E000099584E00E94130320914302892B09F09A
:1019F000D2C0211104C08DEA91E00E944C0881E020
:101A0000809343020E947D046B017C0180913F0220
:101A100090914002A0914102B0914202C816D906AD
:101A2000EA06FB0608F4B6C1D701C6018053984FF9
:101A3000AF4FBF4F80933F0290934002A09341026B
:101A4000B093420280913B0290913C02A0913D02F2
:101A5000B0913E02C816D906EA06FB0608F088C017
:101A60008091290290912A020E94FF098FEB91E058
:101A70000E945A0880912F02909130020E94FF0923
:101A80008FEB91E00E945A0880912D0290912E02D6
:101A90000E94FF098FEB91E00E945A088091310269
:101AA000909132020E94FF098FEB91E00E945A0848
:101AB00080916702909168020E94FF098FEB91E08C
:101AC0000E945A0880912B0290912C020E94FF09DB
:101AD00082EC91E00E945A08809153029091540246
:101AE0000E94FF0980EC91E00E945A088091550203
:101AF000909156020E94FF0980EC91E00E945A08E2
:101B00008091590290915A020E94FF0980EC91E065
:101B10000E945A0880915B0290915C020E94FF092A
:101B200080EC91E00E945A08609123027091240297
:101B300080912502909126024AE00E94970980EC4C
:101B400091E00E945A086091390270913A02072E82
:101B5000000C880B990B97FF03C00E94D80903C0A3
:101B60004AE00E94970980E591E00E943A0812C17C
:101B700085EC91E00E944C08B0E2CB0EBEE4DB1E87
:101B8000E11CF11CC0923B02D0923C02E0923D026B
:101B9000F0923E02FFC0222321F080EF91E00E94EC
:101BA0004C08109243020E947D0400911F02109184
:101BB00020022091210230912202061717072807E0
:101BC000390708F0E7C0DC01CB018C599F4FAF4FBC
:101BD000BF4F80931F0290932002A0932102B093E5
:101BE00022020E94E20880911D0290911E0201963D
:101BF0009C012770332730931E0220931D0224304E
:101C000031052CF0E7E0F0E0E21BF30B9F014AE026
:101C1000429FB001439F700D11246E527F4F20915F
:101C2000670230916802232BD1F020912B02309172
:101C30002C02232B49F060E070E080E090E00E94ED
:101C4000A4076FEF70E013C020916102309162022F
:101C5000232B39F080FF03C06FEF70E002C060E01B
:101C600070E080E090E00E94A40760E070E081E016
:101C700090E00E94A40720912D0230912E02409105
:101C80001B0250911C0280912F0290913002241768
:101C9000350739F44091190250911A0284179507BB
:101CA00071F0109218021092170230931C022093C8
:101CB0001B0290931A028093190211E00AC08091CE
:101CC00017029091180201969093180280931702C0
:101CD00010E08CE00E941303892B09F043C011230C
:101CE00051F080911602882341F081E080935202E6
:101CF0001092160202C01092520280915202882362
:101D000019F06FEF70E042C080911D02112319F0AD
:101D100080FD03C013C082FF11C06FEF70E083E04D
:101D200090E00E94A4076FEF70E080E090E00E94D6
:101D3000A4076FEF70E081E090E02AC060E070E0FF
:101D400083E090E00E94A40760E070E080E090E013
:101D50000E94A40760E070E081E090E00E94A40788
:101D600011E019C01092520281E080931602809116
:101D70001D0290911E02112329F0892B11F260E0BF
:101D800070E004C082FFFBCF60E870E083E090E089
:101D90000E94A40710E0C0901202D0901302E090BD
:101DA0001402F09015020E947D04DC01CB01845FD7
:101DB0009140A109B109C816D906EA06FB06A0F0B0
:101DC000112309F401C20E947D04DC01CB018A5F6A
:101DD0009109A109B1098093120290931302A09373
:101DE0001402B09315020CC01111EDCF0E947D04B6
:101DF0006093120270931302809314029093150261
:101E00000E941E0460932302709324028093250293
:101E100090932602EBE5F4E01192119224E0EB3668
:101E2000F207D1F780915202882309F44AC1209128
:101E30005F02309160024FE0429FC001439F900DCE
:101E4000112468E970E00E944C1180911002909179
:101E50001102AB01481B590BCA0157FF03C09195F2
:101E600081959109029724F07093110260931002FA
:101E7000072E000C880B990B0E94EA124B015C01A3
:101E800020E030E0A9010E94421287FF07C0B7FAA4
:101E9000B094B7F8B09401E013E002C000E014E0A1
:101EA00020E030E040E05FE3C501B4010E94D611BC
:101EB0000E94B9126B017C01612C712C81E090E0D1
:101EC000A0E0B0E089839A83AB83BC83412E512C80
:101ED0006414750484F4AAE0B0E029813A814B814E
:101EE0005C810E94B01169837A838B839C839FEF0E
:101EF000691A790AEDCF412C512C70E8672E7FE3E7
:101F0000772E10E029813A814B815C81C216D3067D
:101F1000E406F506E0F0115020E030E040E251E444
:101F2000C301B2010E9447122B013C019B01AC018D
:101F3000C501B4010E949A1320E030E040E05FE365
:101F40000E94D6110E94B9126B017C01DBCF20E008
:101F500030E040E85FE3C301B2010E94421287FF14
:101F600017C040E450E050935C0440935B045093EE
:101F70005E0440935D041092600410925F045093DD
:101F8000620440936104509364044093630486C0E8
:101F9000C114D104E104F10409F457C0612C64E0D8
:101FA000962EC114D104E104F10409F447C01123B1
:101FB00011F081E0611280E0592C9A94892C54E050
:101FC0005515F8F0A52CB12C9501220F331FD9011E
:101FD000A55ABB4F5D01782E779477247794C7017B
:101FE000B6012AE030E040E050E00E946011FB01C1
:101FF000E05FFE4F8081782A872D90E0F501918384
:102000008083F2E09F120EC04EEF942E950C24E0D8
:10201000281540F0E82DF0E0EE0FFF1FE55AFB4FCA
:1020200011821082C701B6012AE030E040E050E0A2
:102030000E94601169017A016394B3CF161508F00C
:10204000B6CF892D002341F10AC08FE390E0909331
:10205000640480936304011108C083E01DC0E92D6E
:10206000815034E03915C0F002C082E0E3E0F0E0D6
:10207000EE0FFF1FE55AFB4F40E450E051834083D1
:102080000BC0853044F4E82FF0E0EE0FFF1FE55A57
:10209000FB4F11821082815087FFF3CF809117028E
:1020A00090911802181619060CF074C09927FC01BB
:1020B000E05FFE4F808190E090935C0480935B042E
:1020C00069C0112339F180E490E090935C0480931F
:1020D0005B0490935E0480935D049093620480930C
:1020E00061048091170290911802181619065CF489
:1020F0009927FC01E05FFE4F808190E0909364049B
:102100008093630447C0A0E4B0E0B0936404A0935C
:10211000630440C02091290230912A024FE0429F7F
:10212000C001439F900D1124895B9F4F6EE870E0C2
:102130000E944C119B01CB0164E670E00E944C119F
:10214000FB01FF27E05FFE4F808190E090935C04ED
:1021500080935B04C9016AE070E00E944C119C010D
:10216000CB016AE070E00E944C11FC01FF27E05FA8
:10217000FE4F8081806890E090935E0480935D04C0
:102180003327F901E05FFE4F808190E09093620475
:10219000809361040E94B5080E941E0400912302EE
:1021A000109124022091250230912602DC01CB01FE
:1021B000801B910BA20BB30B8093230290932402FC
:1021C000A0932502B09326020E947A0103CB84E4F7
:1021D00091E090936E0480936D0480916F008B7FEB
:1021E00080936F0080916F008F7D80936F0080914E
:1021F000070280930802809106028111FCCF809132
:102200006F008D7F80936F000895E2EBF3E01382FF
:10221000128288EE93E0A0E0B0E084839583A683E9
:10222000B78324E231E03183208325EC30E0358729
:10223000248724EC30E03787268720EC30E0318B90
:10224000208B21EC30E0338B228B22EC30E0358B7D
:10225000248B26EC30E0378B268B118E128E138E5A
:10226000148EEFE4F4E01382128284839583A683B4
:10227000B78324E331E031832083EDE6F4E0138279
:10228000128284839583A683B78384E491E091834B
:10229000808310926C04089597FB072E16F4009427
:1022A00007D077FD09D00E94BB1107FC05D03EF492
:1022B000909581959F4F0895709561957F4F0895F2
:1022C000A1E21A2EAA1BBB1BFD010DC0AA1FBB1F3A
:1022D000EE1FFF1FA217B307E407F50720F0A21BAC
:1022E000B30BE40BF50B661F771F881F991F1A9419
:1022F00069F760957095809590959B01AC01BD0143
:10230000CF010895052E97FB1EF400940E949911A9
:1023100057FD07D00E94601107FC03D04EF40C94C7
:10232000991150954095309521953F4F4F4F5F4FF4
:10233000089590958095709561957F4F8F4F9F4F31
:102340000895A29FB001B39FC001A39F700D811D8E
:102350001124911DB29F700D811D1124911D0895AE
:102360000E94A111A59F900DB49F900DA49F800D78
:10237000911D11240895AA1BBB1B51E107C0AA1F80
:10238000BB1FA617B70710F0A61BB70B881F991F16
:102390005A95A9F780959095BC01CD010895EE0F4F
:1023A000FF1F0590F491E02D09945058BB27AA27F0
:1023B0000E94ED110C9460130E94521338F00E9499
:1023C000591320F039F49F3F19F426F40C944F135D
:1023D0000EF4E095E7FB0C944913E92F0E9471136A
:1023E00058F3BA17620773078407950720F079F44A
:1023F000A6F50C9493130EF4E0950B2EBA2FA02D96
:102400000B01B90190010C01CA01A0011124FF27A1
:10241000591B99F0593F50F4503E68F11A16F0409C
:10242000A22F232F342F4427585FF3CF469537959B
:102430002795A795F0405395C9F77EF41F16BA0B60
:10244000620B730B840BBAF09150A1F0FF0FBB1F0E
:10245000661F771F881FC2F70EC0BA0F621F731F57
:10246000841F48F4879577956795B795F7959E3FB4
:1024700008F0B0CF9395880F08F09927EE0F979545
:10248000879508950E94251308F481E008950E941D
:102490005B120C9460130E94591358F00E9452135F
:1024A00040F029F45F3F29F00C94491351110C942A
:1024B00094130C944F130E94711368F39923B1F392
:1024C000552391F3951B550BBB27AA27621773075A
:1024D000840738F09F5F5F4F220F331F441FAA1FEE
:1024E000A9F335D00E2E3AF0E0E832D091505040AA
:1024F000E695001CCAF72BD0FE2F29D0660F771F58
:10250000881FBB1F261737074807AB07B0E809F03D
:10251000BB0B802DBF01FF2793585F4F3AF09E3FC2
:10252000510578F00C9449130C9494135F3FE4F335
:10253000983ED4F3869577956795B795F7959F5F05
:10254000C9F7880F911D9695879597F90895E1E051
:10255000660F771F881FBB1F621773078407BA07B0
:1025600020F0621B730B840BBA0BEE1F88F7E0950B
:1025700008950E94791388F09F5798F0B92F9927F2
:10258000B751B0F0E1F0660F771F881F991F1AF05E
:10259000BA95C9F714C0B13091F00E949313B1E01D
:1025A00008950C949313672F782F8827B85F39F01C
:1025B000B93FCCF3869577956795B395D9F73EF4F7
:1025C00090958095709561957F4F8F4F9F4F08959F
:1025D000E89409C097FB3EF49095809570956195BD
:1025E0007F4F8F4F9F4F9923A9F0F92F96E9BB2773
:1025F0009395F695879577956795B795F111F8CFEF
:10260000FAF4BB0F11F460FF1BC06F5F7F4F8F4F59
:102610009F4F16C0882311F096E911C0772321F04F
:102620009EE8872F762F05C0662371F096E8862FE7
:1026300070E060E02AF09A95660F771F881FDAF73E
:10264000880F9695879597F90895990F0008550F6B
:10265000AA0BE0E8FEEF16161706E807F907C0F028
:1026600012161306E407F50798F0621B730B840B30
:10267000950B39F40A2661F0232B242B252B21F40A
:1026800008950A2609F4A140A6958FEF811D811DAA
:10269000089597F99F6780E870E060E008959FEFE4
:1026A00080EC089500240A941616170618060906E9
:1026B000089500240A9412161306140605060895B8
:1026C000092E0394000C11F4882352F0BB0F40F440
:1026D000BF2B11F460FF04C06F5F7F4F8F4F9F4F80
:1026E000089557FD9058440F551F59F05F3F71F002
:1026F0004795880F97FB991F61F09F3F79F0879569
:102700000895121613061406551FF2CF4695F1DFF1
:1027100008C0161617061806991FF1CF8695710581
:10272000610508940895E894BB2766277727CB01B5
:1027300097F908950E94AD130C9460130E945213F0
:1027400038F00E94591320F0952311F00C9449138E
:102750000C944F1311240C9494130E94711370F372
:10276000959FC1F3950F50E0551F629FF001729F36
:10277000BB27F00DB11D639FAA27F00DB11DAA1F45
:10278000649F6627B00DA11D661F829F2227B00D92
:10279000A11D621F739FB00DA11D621F839FA00D1D
:1027A000611D221F749F3327A00D611D231F849F6D
:1027B000600D211D822F762F6A2F11249F575040C4
:1027C0009AF0F1F088234AF0EE0FFF1FBB1F661F3F
:1027D000771F881F91505040A9F79E3F510580F008
:1027E0000C9449130C9494135F3FE4F3983ED4F394
:1027F000869577956795B795F795E7959F5FC1F7AC
:10280000FE2B880F911D9695879597F90895CF9384
:10281000DF938230910510F482E090E0E0917B0438
:10282000F0917C0420E030E0C0E0D0E0309711F17E
:102830004081518148175907C0F04817590761F482
:1028400082819381209719F09B838A832BC0909378
:102850007C0480937B0426C02115310519F04217B2
:10286000530718F49A01BE01DF01EF010280F381E2
:10287000E02DDCCF2115310509F1281B390B24305F
:10288000310590F412968D919C9113976115710505
:1028900021F0FB019383828304C090937C04809396
:1028A0007B04FD01329644C0FD01E20FF31F8193CA
:1028B0009193225031092D933C933AC02091790491
:1028C00030917A04232B41F42091020130910301CD
:1028D00030937A0420937904209100013091010112
:1028E0002115310541F42DB73EB7409104015091B7
:1028F0000501241B350BE0917904F0917A04E2176D
:10290000F307A0F42E1B3F0B2817390778F0AC0112
:102910004E5F5F4F2417350748F04E0F5F1F5093EF
:102920007A04409379048193919302C0E0E0F0E04F
:10293000CF01DF91CF9108950F931F93CF93DF9332
:10294000009709F48CC0FC01329713821282009127
:102950007B0410917C040115110581F420813181E3
:10296000820F931F2091790430917A042817390738
:1029700079F5F0937A04E093790471C0D80140E0CE
:1029800050E0AE17BF0750F412962D913C9113976B
:10299000AD012115310509F1D901F3CF9D01DA010E
:1029A0003383228360817181860F971F821793077B
:1029B00069F4EC0128813981260F371F2E5F3F4FC4
:1029C000318320838A819B8193838283452B29F4E1
:1029D000F0937C04E0937B0442C01396FC93EE9347
:1029E0001297ED01499159919E01240F351FE2176D
:1029F000F30771F480819181840F951F02961196DF
:102A00009C938E938281938113969C938E931297BD
:102A1000E0E0F0E0D80112968D919C911397009719
:102A200019F0F8018C01F6CF8D919C9198012E5FE1
:102A30003F4F820F931F2091790430917A04281719
:102A4000390769F4309729F410927C0410927B04C2
:102A500002C01382128210937A0400937904DF91EA
:102A6000CF911F910F91089581E090E0F8940C941C
:102A70004215FB01DC0102C001900D924150504013
:102A8000D8F7089510E0C2E6D0E004C0FE010E942D
:0E2A9000CF112196C336D107C9F7F894FFCFB6
:102A9E0000007D0480000500060009000A000B00FE
:102AAE003F065B4F666D7D077F6F777C395E797170
:102ABE000000000011018D00DA00B800CC005801B2
:102ACE00000000001A02DD01D501C601B801B701F0
:102ADE000000000080028D004302650252027B025C
:102AEE000D0A00556E6976657273616C20537061C4
:102AFE00726B7920436F6E74726F6C2050616E65CD
:102B0E006C203A4372656174656420004F637420D3
:102B1E00203120323031390031393A32353A3537B9
:102B2E000052756E74696D65204D6F6E69746F72AB
:102B3E002069732064697361626C6564004D6F6E09
:102B4E0069746F7220416374697661746564002CD8
:102B5E002000205B00564F4C5420584D49542052B3
:102B6E004543562053534543484F2044313220426B
:102B7E00414C4C204C58206C7920525820524C001D
:102B8E004D6F6E69746F722044656163746976610E
:042B9E0074656400F6
:00000001FF
